{
  "contractName": "MarineInsurance",
  "abi": [
    {
      "inputs": [
        {
          "internalType": "address",
          "name": "_linkTokenAddress",
          "type": "address"
        }
      ],
      "stateMutability": "nonpayable",
      "type": "constructor"
    },
    {
      "anonymous": false,
      "inputs": [
        {
          "indexed": true,
          "internalType": "bytes32",
          "name": "id",
          "type": "bytes32"
        }
      ],
      "name": "ChainlinkCancelled",
      "type": "event"
    },
    {
      "anonymous": false,
      "inputs": [
        {
          "indexed": true,
          "internalType": "bytes32",
          "name": "id",
          "type": "bytes32"
        }
      ],
      "name": "ChainlinkFulfilled",
      "type": "event"
    },
    {
      "anonymous": false,
      "inputs": [
        {
          "indexed": true,
          "internalType": "bytes32",
          "name": "id",
          "type": "bytes32"
        }
      ],
      "name": "ChainlinkRequested",
      "type": "event"
    },
    {
      "anonymous": false,
      "inputs": [
        {
          "indexed": true,
          "internalType": "address",
          "name": "beneficiary",
          "type": "address"
        },
        {
          "indexed": true,
          "internalType": "uint256",
          "name": "insuranceIdentifier",
          "type": "uint256"
        },
        {
          "indexed": false,
          "internalType": "uint256",
          "name": "amountPaid",
          "type": "uint256"
        }
      ],
      "name": "ClaimPayout",
      "type": "event"
    },
    {
      "anonymous": false,
      "inputs": [
        {
          "indexed": true,
          "internalType": "address",
          "name": "beneficiary",
          "type": "address"
        },
        {
          "indexed": true,
          "internalType": "uint256",
          "name": "insuranceIdentifier",
          "type": "uint256"
        }
      ],
      "name": "InsurancePolicyCreation",
      "type": "event"
    },
    {
      "anonymous": false,
      "inputs": [
        {
          "indexed": true,
          "internalType": "address",
          "name": "beneficiary",
          "type": "address"
        },
        {
          "indexed": true,
          "internalType": "uint256",
          "name": "insuranceIdentifier",
          "type": "uint256"
        },
        {
          "indexed": false,
          "internalType": "uint256",
          "name": "dateExpired",
          "type": "uint256"
        }
      ],
      "name": "InsurancePolicyExpired",
      "type": "event"
    },
    {
      "anonymous": false,
      "inputs": [
        {
          "indexed": true,
          "internalType": "address",
          "name": "previousOwner",
          "type": "address"
        },
        {
          "indexed": true,
          "internalType": "address",
          "name": "newOwner",
          "type": "address"
        }
      ],
      "name": "OwnershipTransferred",
      "type": "event"
    },
    {
      "stateMutability": "payable",
      "type": "fallback",
      "payable": true
    },
    {
      "inputs": [
        {
          "internalType": "uint256",
          "name": "",
          "type": "uint256"
        }
      ],
      "name": "insurancePolicies",
      "outputs": [
        {
          "components": [
            {
              "internalType": "uint256",
              "name": "dwellingValue",
              "type": "uint256"
            }
          ],
          "internalType": "struct MarineInsurance.DwellingData",
          "name": "dwellingData",
          "type": "tuple"
        },
        {
          "components": [
            {
              "internalType": "uint256",
              "name": "dailyClaimAmount",
              "type": "uint256"
            },
            {
              "internalType": "uint256",
              "name": "startDate",
              "type": "uint256"
            },
            {
              "internalType": "uint256",
              "name": "endDate",
              "type": "uint256"
            },
            {
              "internalType": "int256",
              "name": "waterLevelMin",
              "type": "int256"
            },
            {
              "internalType": "int256",
              "name": "waterLevelMax",
              "type": "int256"
            },
            {
              "internalType": "address payable",
              "name": "beneficiary",
              "type": "address"
            }
          ],
          "internalType": "struct MarineInsurance.CoverageData",
          "name": "coverageData",
          "type": "tuple"
        },
        {
          "components": [
            {
              "components": [
                {
                  "internalType": "string",
                  "name": "lat",
                  "type": "string"
                },
                {
                  "internalType": "string",
                  "name": "lng",
                  "type": "string"
                }
              ],
              "internalType": "struct MarineInsurance.Coordinate",
              "name": "location",
              "type": "tuple"
            },
            {
              "internalType": "int256",
              "name": "currentWaterLevel",
              "type": "int256"
            },
            {
              "internalType": "bytes32",
              "name": "currentRequestId",
              "type": "bytes32"
            },
            {
              "internalType": "enum MarineInsurance.RequestStatus",
              "name": "requestStatus",
              "type": "uint8"
            }
          ],
          "internalType": "struct MarineInsurance.TrackingData",
          "name": "trackingData",
          "type": "tuple"
        }
      ],
      "stateMutability": "view",
      "type": "function",
      "constant": true
    },
    {
      "inputs": [
        {
          "internalType": "address",
          "name": "",
          "type": "address"
        },
        {
          "internalType": "uint256",
          "name": "",
          "type": "uint256"
        }
      ],
      "name": "insurancePolicyOwnership",
      "outputs": [
        {
          "internalType": "uint256",
          "name": "",
          "type": "uint256"
        }
      ],
      "stateMutability": "view",
      "type": "function",
      "constant": true
    },
    {
      "inputs": [],
      "name": "isOwner",
      "outputs": [
        {
          "internalType": "bool",
          "name": "",
          "type": "bool"
        }
      ],
      "stateMutability": "view",
      "type": "function",
      "constant": true
    },
    {
      "inputs": [],
      "name": "owner",
      "outputs": [
        {
          "internalType": "address",
          "name": "",
          "type": "address"
        }
      ],
      "stateMutability": "view",
      "type": "function",
      "constant": true
    },
    {
      "inputs": [
        {
          "internalType": "address",
          "name": "newOwner",
          "type": "address"
        }
      ],
      "name": "transferOwnership",
      "outputs": [],
      "stateMutability": "nonpayable",
      "type": "function"
    },
    {
      "inputs": [],
      "name": "waterLevelEvaluationPeriod",
      "outputs": [
        {
          "internalType": "uint256",
          "name": "",
          "type": "uint256"
        }
      ],
      "stateMutability": "view",
      "type": "function",
      "constant": true
    },
    {
      "inputs": [],
      "name": "waterLevelEvaluationPeriodActive",
      "outputs": [
        {
          "internalType": "bool",
          "name": "",
          "type": "bool"
        }
      ],
      "stateMutability": "view",
      "type": "function",
      "constant": true
    },
    {
      "inputs": [],
      "name": "waterLevelEvaluationPeriodFee",
      "outputs": [
        {
          "internalType": "uint256",
          "name": "",
          "type": "uint256"
        }
      ],
      "stateMutability": "view",
      "type": "function",
      "constant": true
    },
    {
      "inputs": [],
      "name": "waterLevelEvaluationPeriodJobId",
      "outputs": [
        {
          "internalType": "bytes32",
          "name": "",
          "type": "bytes32"
        }
      ],
      "stateMutability": "view",
      "type": "function",
      "constant": true
    },
    {
      "inputs": [],
      "name": "waterLevelEvaluationPeriodOracle",
      "outputs": [
        {
          "internalType": "address",
          "name": "",
          "type": "address"
        }
      ],
      "stateMutability": "view",
      "type": "function",
      "constant": true
    },
    {
      "inputs": [],
      "name": "waterLevelFee",
      "outputs": [
        {
          "internalType": "uint256",
          "name": "",
          "type": "uint256"
        }
      ],
      "stateMutability": "view",
      "type": "function",
      "constant": true
    },
    {
      "inputs": [],
      "name": "waterLevelJobId",
      "outputs": [
        {
          "internalType": "bytes32",
          "name": "",
          "type": "bytes32"
        }
      ],
      "stateMutability": "view",
      "type": "function",
      "constant": true
    },
    {
      "inputs": [],
      "name": "waterLevelOracle",
      "outputs": [
        {
          "internalType": "address",
          "name": "",
          "type": "address"
        }
      ],
      "stateMutability": "view",
      "type": "function",
      "constant": true
    },
    {
      "inputs": [
        {
          "components": [
            {
              "internalType": "uint256",
              "name": "dwellingValue",
              "type": "uint256"
            }
          ],
          "internalType": "struct MarineInsurance.DwellingData",
          "name": "_dwellingData",
          "type": "tuple"
        }
      ],
      "name": "calculatePremium",
      "outputs": [
        {
          "internalType": "uint256",
          "name": "",
          "type": "uint256"
        }
      ],
      "stateMutability": "view",
      "type": "function",
      "constant": true
    },
    {
      "inputs": [
        {
          "components": [
            {
              "internalType": "uint256",
              "name": "dwellingValue",
              "type": "uint256"
            }
          ],
          "internalType": "struct MarineInsurance.DwellingData",
          "name": "_dwellingData",
          "type": "tuple"
        }
      ],
      "name": "calculateDailyClaimPayouts",
      "outputs": [
        {
          "internalType": "uint256",
          "name": "",
          "type": "uint256"
        }
      ],
      "stateMutability": "pure",
      "type": "function",
      "constant": true
    },
    {
      "inputs": [
        {
          "components": [
            {
              "internalType": "uint256",
              "name": "dwellingValue",
              "type": "uint256"
            }
          ],
          "internalType": "struct MarineInsurance.DwellingData",
          "name": "_dwellingData",
          "type": "tuple"
        },
        {
          "components": [
            {
              "internalType": "string",
              "name": "lat",
              "type": "string"
            },
            {
              "internalType": "string",
              "name": "lng",
              "type": "string"
            }
          ],
          "internalType": "struct MarineInsurance.Coordinate",
          "name": "_location",
          "type": "tuple"
        },
        {
          "internalType": "uint256",
          "name": "_startDate",
          "type": "uint256"
        },
        {
          "internalType": "uint256",
          "name": "_endDate",
          "type": "uint256"
        }
      ],
      "name": "registerInsurancePolicy",
      "outputs": [
        {
          "internalType": "uint256",
          "name": "",
          "type": "uint256"
        }
      ],
      "stateMutability": "payable",
      "type": "function",
      "payable": true
    },
    {
      "inputs": [],
      "name": "getInsurancePolicyIds",
      "outputs": [
        {
          "internalType": "uint256[]",
          "name": "",
          "type": "uint256[]"
        }
      ],
      "stateMutability": "view",
      "type": "function",
      "constant": true
    },
    {
      "inputs": [
        {
          "internalType": "address",
          "name": "beneficiary",
          "type": "address"
        }
      ],
      "name": "getInsurancePolicies",
      "outputs": [
        {
          "components": [
            {
              "components": [
                {
                  "internalType": "uint256",
                  "name": "dwellingValue",
                  "type": "uint256"
                }
              ],
              "internalType": "struct MarineInsurance.DwellingData",
              "name": "dwellingData",
              "type": "tuple"
            },
            {
              "components": [
                {
                  "internalType": "uint256",
                  "name": "dailyClaimAmount",
                  "type": "uint256"
                },
                {
                  "internalType": "uint256",
                  "name": "startDate",
                  "type": "uint256"
                },
                {
                  "internalType": "uint256",
                  "name": "endDate",
                  "type": "uint256"
                },
                {
                  "internalType": "int256",
                  "name": "waterLevelMin",
                  "type": "int256"
                },
                {
                  "internalType": "int256",
                  "name": "waterLevelMax",
                  "type": "int256"
                },
                {
                  "internalType": "address payable",
                  "name": "beneficiary",
                  "type": "address"
                }
              ],
              "internalType": "struct MarineInsurance.CoverageData",
              "name": "coverageData",
              "type": "tuple"
            },
            {
              "components": [
                {
                  "components": [
                    {
                      "internalType": "string",
                      "name": "lat",
                      "type": "string"
                    },
                    {
                      "internalType": "string",
                      "name": "lng",
                      "type": "string"
                    }
                  ],
                  "internalType": "struct MarineInsurance.Coordinate",
                  "name": "location",
                  "type": "tuple"
                },
                {
                  "internalType": "int256",
                  "name": "currentWaterLevel",
                  "type": "int256"
                },
                {
                  "internalType": "bytes32",
                  "name": "currentRequestId",
                  "type": "bytes32"
                },
                {
                  "internalType": "enum MarineInsurance.RequestStatus",
                  "name": "requestStatus",
                  "type": "uint8"
                }
              ],
              "internalType": "struct MarineInsurance.TrackingData",
              "name": "trackingData",
              "type": "tuple"
            }
          ],
          "internalType": "struct MarineInsurance.InsurancePolicy[]",
          "name": "",
          "type": "tuple[]"
        }
      ],
      "stateMutability": "view",
      "type": "function",
      "constant": true
    },
    {
      "inputs": [],
      "name": "getInsurancePolicies",
      "outputs": [
        {
          "components": [
            {
              "components": [
                {
                  "internalType": "uint256",
                  "name": "dwellingValue",
                  "type": "uint256"
                }
              ],
              "internalType": "struct MarineInsurance.DwellingData",
              "name": "dwellingData",
              "type": "tuple"
            },
            {
              "components": [
                {
                  "internalType": "uint256",
                  "name": "dailyClaimAmount",
                  "type": "uint256"
                },
                {
                  "internalType": "uint256",
                  "name": "startDate",
                  "type": "uint256"
                },
                {
                  "internalType": "uint256",
                  "name": "endDate",
                  "type": "uint256"
                },
                {
                  "internalType": "int256",
                  "name": "waterLevelMin",
                  "type": "int256"
                },
                {
                  "internalType": "int256",
                  "name": "waterLevelMax",
                  "type": "int256"
                },
                {
                  "internalType": "address payable",
                  "name": "beneficiary",
                  "type": "address"
                }
              ],
              "internalType": "struct MarineInsurance.CoverageData",
              "name": "coverageData",
              "type": "tuple"
            },
            {
              "components": [
                {
                  "components": [
                    {
                      "internalType": "string",
                      "name": "lat",
                      "type": "string"
                    },
                    {
                      "internalType": "string",
                      "name": "lng",
                      "type": "string"
                    }
                  ],
                  "internalType": "struct MarineInsurance.Coordinate",
                  "name": "location",
                  "type": "tuple"
                },
                {
                  "internalType": "int256",
                  "name": "currentWaterLevel",
                  "type": "int256"
                },
                {
                  "internalType": "bytes32",
                  "name": "currentRequestId",
                  "type": "bytes32"
                },
                {
                  "internalType": "enum MarineInsurance.RequestStatus",
                  "name": "requestStatus",
                  "type": "uint8"
                }
              ],
              "internalType": "struct MarineInsurance.TrackingData",
              "name": "trackingData",
              "type": "tuple"
            }
          ],
          "internalType": "struct MarineInsurance.InsurancePolicy[]",
          "name": "",
          "type": "tuple[]"
        }
      ],
      "stateMutability": "view",
      "type": "function",
      "constant": true
    },
    {
      "inputs": [],
      "name": "getChainlinkToken",
      "outputs": [
        {
          "internalType": "address",
          "name": "",
          "type": "address"
        }
      ],
      "stateMutability": "view",
      "type": "function",
      "constant": true
    },
    {
      "inputs": [
        {
          "internalType": "bytes32",
          "name": "_requestId",
          "type": "bytes32"
        },
        {
          "internalType": "int256",
          "name": "_level",
          "type": "int256"
        }
      ],
      "name": "receiveWaterLevel",
      "outputs": [],
      "stateMutability": "nonpayable",
      "type": "function"
    },
    {
      "inputs": [
        {
          "internalType": "bytes32",
          "name": "_requestId",
          "type": "bytes32"
        }
      ],
      "name": "automatedWaterEvaluationLevelReceiver",
      "outputs": [],
      "stateMutability": "nonpayable",
      "type": "function"
    },
    {
      "inputs": [
        {
          "internalType": "address",
          "name": "_oracleAddress",
          "type": "address"
        },
        {
          "internalType": "bytes32",
          "name": "_jobId",
          "type": "bytes32"
        },
        {
          "internalType": "uint256",
          "name": "_fee",
          "type": "uint256"
        }
      ],
      "name": "setWaterLevelOracleData",
      "outputs": [],
      "stateMutability": "nonpayable",
      "type": "function"
    },
    {
      "inputs": [
        {
          "internalType": "address",
          "name": "_oracleAddress",
          "type": "address"
        },
        {
          "internalType": "bytes32",
          "name": "_jobId",
          "type": "bytes32"
        },
        {
          "internalType": "uint256",
          "name": "_fee",
          "type": "uint256"
        }
      ],
      "name": "setWaterLevelEvaluationPeriodOracle",
      "outputs": [],
      "stateMutability": "nonpayable",
      "type": "function"
    },
    {
      "inputs": [
        {
          "internalType": "uint256",
          "name": "_seconds",
          "type": "uint256"
        }
      ],
      "name": "setWaterLevelEvaluationRequestPeriod",
      "outputs": [],
      "stateMutability": "nonpayable",
      "type": "function"
    },
    {
      "inputs": [
        {
          "internalType": "bool",
          "name": "_isActive",
          "type": "bool"
        }
      ],
      "name": "setWaterLevelEvaluationPeriodActive",
      "outputs": [],
      "stateMutability": "nonpayable",
      "type": "function"
    },
    {
      "inputs": [],
      "name": "requestWaterLevelsManually",
      "outputs": [],
      "stateMutability": "nonpayable",
      "type": "function"
    },
    {
      "inputs": [],
      "name": "startWaterLevelEvaluationRequestPeriod",
      "outputs": [],
      "stateMutability": "nonpayable",
      "type": "function"
    },
    {
      "inputs": [
        {
          "internalType": "uint256",
          "name": "insurancePolicyIdentifier",
          "type": "uint256"
        },
        {
          "internalType": "int256",
          "name": "_level",
          "type": "int256"
        }
      ],
      "name": "changeWaterLevelManually",
      "outputs": [],
      "stateMutability": "nonpayable",
      "type": "function"
    },
    {
      "inputs": [
        {
          "internalType": "uint256",
          "name": "_identifier",
          "type": "uint256"
        }
      ],
      "name": "isPolicyActive",
      "outputs": [
        {
          "internalType": "bool",
          "name": "",
          "type": "bool"
        }
      ],
      "stateMutability": "view",
      "type": "function",
      "constant": true
    }
  ],
  "bytecode": "0x608060405260016004553480156200001657600080fd5b50604051620042b2380380620042b283398181016040528101906200003c91906200026c565b33600660006101000a81548173ffffffffffffffffffffffffffffffffffffffff021916908373ffffffffffffffffffffffffffffffffffffffff160217905550600660009054906101000a900473ffffffffffffffffffffffffffffffffffffffff1673ffffffffffffffffffffffffffffffffffffffff16600073ffffffffffffffffffffffffffffffffffffffff167f8be0079c531659141344cd1fd0a4f28419497f9722a3daafe3b4186f6b6457e060405160405180910390a362015180601081905550600073ffffffffffffffffffffffffffffffffffffffff168173ffffffffffffffffffffffffffffffffffffffff16141562000150576200014a6200016960201b60201c565b62000162565b62000161816200021160201b60201c565b5b50620002e6565b6200020f73c89bd4e1632d3a43cb03aaad5262cbe4038bc57173ffffffffffffffffffffffffffffffffffffffff166338cc48316040518163ffffffff1660e01b815260040160206040518083038186803b158015620001c857600080fd5b505afa158015620001dd573d6000803e3d6000fd5b505050506040513d601f19601f820116820180604052508101906200020391906200026c565b6200021160201b60201c565b565b80600260006101000a81548173ffffffffffffffffffffffffffffffffffffffff021916908373ffffffffffffffffffffffffffffffffffffffff16021790555050565b6000815190506200026681620002cc565b92915050565b6000602082840312156200027f57600080fd5b60006200028f8482850162000255565b91505092915050565b6000620002a582620002ac565b9050919050565b600073ffffffffffffffffffffffffffffffffffffffff82169050919050565b620002d78162000298565b8114620002e357600080fd5b50565b613fbc80620002f66000396000f3fe6080604052600436106101d15760003560e01c80639a3d2e14116100f7578063bf8e8f7611610095578063ca2eb4d911610064578063ca2eb4d91461066f578063d50121be1461069a578063ef521182146106c5578063f2fde38b146106f0576101d2565b8063bf8e8f76146105db578063bf909d3e14610606578063c98d4ce91461062f578063c9da78d814610658576101d2565b8063af90e080116100d1578063af90e08014610506578063b6f2d6bf1461052f578063bd8afa461461056e578063bf739052146105ab576101d2565b80639a3d2e14146104895780639b2fa6e8146104b4578063af04731c146104dd576101d2565b8063472408381161016f5780638da5cb5b1161013e5780638da5cb5b146103cb5780638de149c1146103f65780638f32d59b146104215780639368d8ed1461044c576101d2565b8063472408381461030f578063497d4d541461033a57806357ef043c146103775780635fb6640f146103a0576101d2565b80631b595f0c116101ab5780631b595f0c146102415780631eb0d14b1461026c5780633f841ea41461029557806340682729146102d2576101d2565b80630d58b300146101d4578063165d35e1146101eb5780631a26a93214610216576101d2565b5b005b3480156101e057600080fd5b506101e9610719565b005b3480156101f757600080fd5b5061020061081a565b60405161020d9190613a2f565b60405180910390f35b34801561022257600080fd5b5061022b610829565b6040516102389190613b6c565b60405180910390f35b34801561024d57600080fd5b5061025661082f565b6040516102639190613a2f565b60405180910390f35b34801561027857600080fd5b50610293600480360381019061028e91906131ff565b610855565b005b3480156102a157600080fd5b506102bc60048036038101906102b79190613264565b610966565b6040516102c99190613c66565b60405180910390f35b3480156102de57600080fd5b506102f960048036038101906102f49190613264565b610975565b6040516103069190613c66565b60405180910390f35b34801561031b57600080fd5b50610324610981565b6040516103319190613b2f565b60405180910390f35b34801561034657600080fd5b50610361600480360381019061035c91906130f9565b610a16565b60405161036e9190613b0d565b60405180910390f35b34801561038357600080fd5b5061039e60048036038101906103999190613331565b610d99565b005b3480156103ac57600080fd5b506103b5610f52565b6040516103c29190613c66565b60405180910390f35b3480156103d757600080fd5b506103e0610f58565b6040516103ed9190613a2f565b60405180910390f35b34801561040257600080fd5b5061040b610f82565b6040516104189190613c66565b60405180910390f35b34801561042d57600080fd5b50610436610f88565b6040516104439190613b51565b60405180910390f35b34801561045857600080fd5b50610473600480360381019061046e9190613171565b610fe0565b6040516104809190613c66565b60405180910390f35b34801561049557600080fd5b5061049e61100e565b6040516104ab9190613c66565b60405180910390f35b3480156104c057600080fd5b506104db60048036038101906104d69190613228565b611014565b005b3480156104e957600080fd5b5061050460048036038101906104ff9190613122565b6115f0565b005b34801561051257600080fd5b5061052d600480360381019061052891906131ad565b61168b565b005b34801561053b57600080fd5b5061055660048036038101906105519190613308565b6116ef565b60405161056593929190613c27565b60405180910390f35b34801561057a57600080fd5b5061059560048036038101906105909190613308565b61196f565b6040516105a29190613b51565b60405180910390f35b6105c560048036038101906105c0919061328d565b6119b5565b6040516105d29190613c66565b60405180910390f35b3480156105e757600080fd5b506105f0611d38565b6040516105fd9190613b6c565b60405180910390f35b34801561061257600080fd5b5061062d60048036038101906106289190613122565b611d3e565b005b34801561063b57600080fd5b5061065660048036038101906106519190613308565b611dd9565b005b34801561066457600080fd5b5061066d611e2a565b005b34801561067b57600080fd5b50610684611e7b565b6040516106919190613b0d565b60405180910390f35b3480156106a657600080fd5b506106af611e8b565b6040516106bc9190613a2f565b60405180910390f35b3480156106d157600080fd5b506106da611eb1565b6040516106e79190613b51565b60405180910390f35b3480156106fc57600080fd5b50610717600480360381019061071291906130f9565b611ec4565b005b610721610f88565b610760576040517f08c379a000000000000000000000000000000000000000000000000000000000815260040161075790613bc7565b60405180910390fd5b6001601160006101000a81548160ff021916908315150217905550610783612d5f565b610797600e5430631eb0d14b60e01b611f17565b90506107e76040518060400160405280600581526020017f756e74696c000000000000000000000000000000000000000000000000000000815250601054420183611f489092919063ffffffff16565b610816600d60009054906101000a900473ffffffffffffffffffffffffffffffffffffffff1682600f54611f7b565b5050565b6000610824612148565b905090565b600b5481565b600a60009054906101000a900473ffffffffffffffffffffffffffffffffffffffff1681565b806005600082815260200190815260200160002060009054906101000a900473ffffffffffffffffffffffffffffffffffffffff1673ffffffffffffffffffffffffffffffffffffffff163373ffffffffffffffffffffffffffffffffffffffff16146108f7576040517f08c379a00000000000000000000000000000000000000000000000000000000081526004016108ee90613be7565b60405180910390fd5b6005600082815260200190815260200160002060006101000a81549073ffffffffffffffffffffffffffffffffffffffff0219169055807f7cc135e0cebb02c3480ae5d74d377283180a2601f8f644edf7987b009316c63a60405160405180910390a2610962612172565b5050565b600064dc2a26f0009050919050565b60006103e89050919050565b6060600860003373ffffffffffffffffffffffffffffffffffffffff1673ffffffffffffffffffffffffffffffffffffffff168152602001908152602001600020805480602002602001604051908101604052809291908181526020018280548015610a0c57602002820191906000526020600020905b8154815260200190600101908083116109f8575b5050505050905090565b60606000600860008473ffffffffffffffffffffffffffffffffffffffff1673ffffffffffffffffffffffffffffffffffffffff16815260200190815260200160002090506060818054905067ffffffffffffffff81118015610a7857600080fd5b50604051908082528060200260200182016040528015610ab257816020015b610a9f612dcc565b815260200190600190039081610a975790505b50905060008090505b8280549050811015610d8e576007838281548110610ad557fe5b906000526020600020015481548110610aea57fe5b90600052602060002090600c0201604051806060016040529081600082016040518060200160405290816000820154815250508152602001600182016040518060c001604052908160008201548152602001600182015481526020016002820154815260200160038201548152602001600482015481526020016005820160009054906101000a900473ffffffffffffffffffffffffffffffffffffffff1673ffffffffffffffffffffffffffffffffffffffff1673ffffffffffffffffffffffffffffffffffffffff168152505081526020016007820160405180608001604052908160008201604051806040016040529081600082018054600181600116156101000203166002900480601f016020809104026020016040519081016040528092919081815260200182805460018160011615610100020316600290048015610c765780601f10610c4b57610100808354040283529160200191610c76565b820191906000526020600020905b815481529060010190602001808311610c5957829003601f168201915b50505050508152602001600182018054600181600116156101000203166002900480601f016020809104026020016040519081016040528092919081815260200182805460018160011615610100020316600290048015610d185780601f10610ced57610100808354040283529160200191610d18565b820191906000526020600020905b815481529060010190602001808311610cfb57829003601f168201915b505050505081525050815260200160028201548152602001600382015481526020016004820160009054906101000a900460ff166002811115610d5757fe5b6002811115610d6257fe5b8152505081525050828281518110610d7657fe5b60200260200101819052508080600101915050610abb565b508092505050919050565b610da1610f88565b610de0576040517f08c379a0000000000000000000000000000000000000000000000000000000008152600401610dd790613bc7565b60405180910390fd5b600060078381548110610def57fe5b90600052602060002090600c0201905081816007016002018190555060028160070160040160006101000a81548160ff02191690836002811115610e2f57fe5b0217905550806001016003015482138015610e505750806001016004015482125b15610e5b5750610f4e565b6000816001016000015490508160010160050160009054906101000a900473ffffffffffffffffffffffffffffffffffffffff1673ffffffffffffffffffffffffffffffffffffffff166108fc829081150290604051600060405180830381858888f19350505050158015610ed4573d6000803e3d6000fd5b50838260010160050160009054906101000a900473ffffffffffffffffffffffffffffffffffffffff1673ffffffffffffffffffffffffffffffffffffffff167f8a0f10fe83a9844605cfb74899355d591e0f2bf300603f94f62778bf29e02c3f83604051610f439190613c66565b60405180910390a350505b5050565b600c5481565b6000600660009054906101000a900473ffffffffffffffffffffffffffffffffffffffff16905090565b60105481565b6000600660009054906101000a900473ffffffffffffffffffffffffffffffffffffffff1673ffffffffffffffffffffffffffffffffffffffff163373ffffffffffffffffffffffffffffffffffffffff1614905090565b60086020528160005260406000208181548110610ff957fe5b90600052602060002001600091509150505481565b600f5481565b816005600082815260200190815260200160002060009054906101000a900473ffffffffffffffffffffffffffffffffffffffff1673ffffffffffffffffffffffffffffffffffffffff163373ffffffffffffffffffffffffffffffffffffffff16146110b6576040517f08c379a00000000000000000000000000000000000000000000000000000000081526004016110ad90613be7565b60405180910390fd5b6005600082815260200190815260200160002060006101000a81549073ffffffffffffffffffffffffffffffffffffffff0219169055807f7cc135e0cebb02c3480ae5d74d377283180a2601f8f644edf7987b009316c63a60405160405180910390a26000600760096000868152602001908152602001600020548154811061113b57fe5b90600052602060002090600c0201905082816007016002018190555060028160070160040160006101000a81548160ff0219169083600281111561117b57fe5b021790555060096000858152602001908152602001600020600090558060010160030154831380156111b35750806001016004015483125b156111be57506115eb565b6000816001016000015490508160010160050160009054906101000a900473ffffffffffffffffffffffffffffffffffffffff1673ffffffffffffffffffffffffffffffffffffffff166108fc829081150290604051600060405180830381858888f19350505050158015611237573d6000803e3d6000fd5b5060096000868152602001908152602001600020548260010160050160009054906101000a900473ffffffffffffffffffffffffffffffffffffffff1673ffffffffffffffffffffffffffffffffffffffff167f8a0f10fe83a9844605cfb74899355d591e0f2bf300603f94f62778bf29e02c3f836040516112b99190613c66565b60405180910390a35061153d81604051806060016040529081600082016040518060200160405290816000820154815250508152602001600182016040518060c001604052908160008201548152602001600182015481526020016002820154815260200160038201548152602001600482015481526020016005820160009054906101000a900473ffffffffffffffffffffffffffffffffffffffff1673ffffffffffffffffffffffffffffffffffffffff1673ffffffffffffffffffffffffffffffffffffffff168152505081526020016007820160405180608001604052908160008201604051806040016040529081600082018054600181600116156101000203166002900480601f0160208091040260200160405190810160405280929190818152602001828054600181600116156101000203166002900480156114445780601f1061141957610100808354040283529160200191611444565b820191906000526020600020905b81548152906001019060200180831161142757829003601f168201915b50505050508152602001600182018054600181600116156101000203166002900480601f0160208091040260200160405190810160405280929190818152602001828054600181600116156101000203166002900480156114e65780601f106114bb576101008083540402835291602001916114e6565b820191906000526020600020905b8154815290600101906020018083116114c957829003601f168201915b505050505081525050815260200160028201548152602001600382015481526020016004820160009054906101000a900460ff16600281111561152557fe5b600281111561153057fe5b81525050815250506126a2565b6115cb5760096000858152602001908152602001600020548160010160050160009054906101000a900473ffffffffffffffffffffffffffffffffffffffff1673ffffffffffffffffffffffffffffffffffffffff167fce91677659ee2607366d799f176d677da091741578724b138fbe2a6ed9e2aaa7426040516115c29190613c66565b60405180910390a35b601160009054906101000a900460ff16156115e9576115e8610719565b5b505b505050565b6115f8610f88565b611637576040517f08c379a000000000000000000000000000000000000000000000000000000000815260040161162e90613bc7565b60405180910390fd5b82600a60006101000a81548173ffffffffffffffffffffffffffffffffffffffff021916908373ffffffffffffffffffffffffffffffffffffffff16021790555081600b8190555080600c81905550505050565b611693610f88565b6116d2576040517f08c379a00000000000000000000000000000000000000000000000000000000081526004016116c990613bc7565b60405180910390fd5b80601160006101000a81548160ff02191690831515021790555050565b600781815481106116fc57fe5b90600052602060002090600c02016000915090508060000160405180602001604052908160008201548152505090806001016040518060c001604052908160008201548152602001600182015481526020016002820154815260200160038201548152602001600482015481526020016005820160009054906101000a900473ffffffffffffffffffffffffffffffffffffffff1673ffffffffffffffffffffffffffffffffffffffff1673ffffffffffffffffffffffffffffffffffffffff1681525050908060070160405180608001604052908160008201604051806040016040529081600082018054600181600116156101000203166002900480601f01602080910402602001604051908101604052809291908181526020018280546001816001161561010002031660029004801561187a5780601f1061184f5761010080835404028352916020019161187a565b820191906000526020600020905b81548152906001019060200180831161185d57829003601f168201915b50505050508152602001600182018054600181600116156101000203166002900480601f01602080910402602001604051908101604052809291908181526020018280546001816001161561010002031660029004801561191c5780601f106118f15761010080835404028352916020019161191c565b820191906000526020600020905b8154815290600101906020018083116118ff57829003601f168201915b505050505081525050815260200160028201548152602001600382015481526020016004820160009054906101000a900460ff16600281111561195b57fe5b600281111561196657fe5b81525050905083565b6000806007838154811061197f57fe5b90600052602060002090600c02019050806001016001015442101580156119ad575080600101600201544211155b915050919050565b6000806119c186610966565b9050348114611a05576040517f08c379a00000000000000000000000000000000000000000000000000000000081526004016119fc90613c07565b60405180910390fd5b6000611a1087610975565b9050611a1a612dff565b60405180608001604052808881526020017fffffffffffffffffffffffffffffffffffffffffffffffffffffffffffffd8f181526020017f3078300000000000000000000000000000000000000000000000000000000000815260200160006002811115611a8457fe5b8152509050611a91612e3b565b6040518060c001604052808481526020018881526020018781526020017fffffffffffffffffffffffffffffffffffffffffffffffffffffffffffffffce8152602001603281526020013373ffffffffffffffffffffffffffffffffffffffff168152509050611aff612dcc565b60405180606001604052808b815260200183815260200184815250905060078190806001815401808255809150506001900390600052602060002090600c0201600090919091909150600082015181600001600082015181600001555050602082015181600101600082015181600001556020820151816001015560408201518160020155606082015181600301556080820151816004015560a08201518160050160006101000a81548173ffffffffffffffffffffffffffffffffffffffff021916908373ffffffffffffffffffffffffffffffffffffffff16021790555050506040820151816007016000820151816000016000820151816000019080519060200190611c0f929190612e87565b506020820151816001019080519060200190611c2c929190612e87565b505050602082015181600201556040820151816003015560608201518160040160006101000a81548160ff02191690836002811115611c6757fe5b02179055505050505060006001600780549050039050600860003373ffffffffffffffffffffffffffffffffffffffff1673ffffffffffffffffffffffffffffffffffffffff168152602001908152602001600020819080600181540180825580915050600190039060005260206000200160009091909190915055803373ffffffffffffffffffffffffffffffffffffffff167fc22c8c334b41161e831d953b9b2896007e4b6fd6c35c10537b9a26c9bf4a4adc60405160405180910390a3809650505050505050949350505050565b600e5481565b611d46610f88565b611d85576040517f08c379a0000000000000000000000000000000000000000000000000000000008152600401611d7c90613bc7565b60405180910390fd5b82600d60006101000a81548173ffffffffffffffffffffffffffffffffffffffff021916908373ffffffffffffffffffffffffffffffffffffffff16021790555081600e8190555080600f81905550505050565b611de1610f88565b611e20576040517f08c379a0000000000000000000000000000000000000000000000000000000008152600401611e1790613bc7565b60405180910390fd5b8060108190555050565b611e32610f88565b611e71576040517f08c379a0000000000000000000000000000000000000000000000000000000008152600401611e6890613bc7565b60405180910390fd5b611e79612172565b565b6060611e8633610a16565b905090565b600d60009054906101000a900473ffffffffffffffffffffffffffffffffffffffff1681565b601160009054906101000a900460ff1681565b611ecc610f88565b611f0b576040517f08c379a0000000000000000000000000000000000000000000000000000000008152600401611f0290613bc7565b60405180910390fd5b611f14816126cb565b50565b611f1f612d5f565b611f27612d5f565b611f3e858585846127fb909392919063ffffffff16565b9150509392505050565b611f5f8284608001516128ab90919063ffffffff16565b611f768184608001516128d090919063ffffffff16565b505050565b600030600454604051602001611f92929190613a03565b604051602081830303815290604052805190602001209050600454836060018181525050836005600083815260200190815260200160002060006101000a81548173ffffffffffffffffffffffffffffffffffffffff021916908373ffffffffffffffffffffffffffffffffffffffff160217905550807fb5e6e01e79f91267dc17b4e6314d5d4d03593d2ceee0fbb452b750bd70ea5af960405160405180910390a2600260009054906101000a900473ffffffffffffffffffffffffffffffffffffffff1673ffffffffffffffffffffffffffffffffffffffff16634000aea0858461207e876128e0565b6040518463ffffffff1660e01b815260040161209c93929190613acf565b602060405180830381600087803b1580156120b657600080fd5b505af11580156120ca573d6000803e3d6000fd5b505050506040513d601f19601f820116820180604052508101906120ee91906131d6565b61212d576040517f08c379a000000000000000000000000000000000000000000000000000000000815260040161212490613ba7565b60405180910390fd5b60016004600082825401925050819055508090509392505050565b6000600260009054906101000a900473ffffffffffffffffffffffffffffffffffffffff16905090565b60008090505b60078054905081101561269f5760006007828154811061219457fe5b90600052602060002090600c0201905061241f81604051806060016040529081600082016040518060200160405290816000820154815250508152602001600182016040518060c001604052908160008201548152602001600182015481526020016002820154815260200160038201548152602001600482015481526020016005820160009054906101000a900473ffffffffffffffffffffffffffffffffffffffff1673ffffffffffffffffffffffffffffffffffffffff1673ffffffffffffffffffffffffffffffffffffffff168152505081526020016007820160405180608001604052908160008201604051806040016040529081600082018054600181600116156101000203166002900480601f0160208091040260200160405190810160405280929190818152602001828054600181600116156101000203166002900480156123265780601f106122fb57610100808354040283529160200191612326565b820191906000526020600020905b81548152906001019060200180831161230957829003601f168201915b50505050508152602001600182018054600181600116156101000203166002900480601f0160208091040260200160405190810160405280929190818152602001828054600181600116156101000203166002900480156123c85780601f1061239d576101008083540402835291602001916123c8565b820191906000526020600020905b8154815290600101906020018083116123ab57829003601f168201915b505050505081525050815260200160028201548152602001600382015481526020016004820160009054906101000a900460ff16600281111561240757fe5b600281111561241257fe5b81525050815250506126a2565b156126915760018160070160040160006101000a81548160ff0219169083600281111561244857fe5b0217905550612455612d5f565b612469600b5430639b2fa6e860e01b611f17565b90506125576040518060400160405280600381526020017f6c61740000000000000000000000000000000000000000000000000000000000815250836007016000016000018054600181600116156101000203166002900480601f0160208091040260200160405190810160405280929190818152602001828054600181600116156101000203166002900480156125425780601f1061251757610100808354040283529160200191612542565b820191906000526020600020905b81548152906001019060200180831161252557829003601f168201915b5050505050836129879092919063ffffffff16565b6126436040518060400160405280600381526020017f6c6e670000000000000000000000000000000000000000000000000000000000815250836007016000016001018054600181600116156101000203166002900480601f01602080910402602001604051908101604052809291908181526020018280546001816001161561010002031660029004801561262e5780601f106126035761010080835404028352916020019161262e565b820191906000526020600020905b81548152906001019060200180831161261157829003601f168201915b5050505050836129879092919063ffffffff16565b6000612674600a60009054906101000a900473ffffffffffffffffffffffffffffffffffffffff1683600c54611f7b565b905083600960008381526020019081526020016000208190555050505b508080600101915050612178565b50565b600081602001516020015142101580156126c457508160200151604001514211155b9050919050565b600073ffffffffffffffffffffffffffffffffffffffff168173ffffffffffffffffffffffffffffffffffffffff16141561273b576040517f08c379a000000000000000000000000000000000000000000000000000000000815260040161273290613b87565b60405180910390fd5b8073ffffffffffffffffffffffffffffffffffffffff16600660009054906101000a900473ffffffffffffffffffffffffffffffffffffffff1673ffffffffffffffffffffffffffffffffffffffff167f8be0079c531659141344cd1fd0a4f28419497f9722a3daafe3b4186f6b6457e060405160405180910390a380600660006101000a81548173ffffffffffffffffffffffffffffffffffffffff021916908373ffffffffffffffffffffffffffffffffffffffff16021790555050565b612803612d5f565b61281385608001516101006129ba565b508385600001818152505082856020019073ffffffffffffffffffffffffffffffffffffffff16908173ffffffffffffffffffffffffffffffffffffffff16815250508185604001907bffffffffffffffffffffffffffffffffffffffffffffffffffffffff191690817bffffffffffffffffffffffffffffffffffffffffffffffffffffffff191681525050849050949350505050565b6128b88260038351612a0e565b6128cb8183612b5390919063ffffffff16565b505050565b6128dc82600083612a0e565b5050565b6060634042994660e01b60008084600001518560200151866040015187606001516001896080015160000151604051602401612923989796959493929190613a4a565b604051602081830303815290604052907bffffffffffffffffffffffffffffffffffffffffffffffffffffffff19166020820180517bffffffffffffffffffffffffffffffffffffffffffffffffffffffff83818316178352505050509050919050565b61299e8284608001516128ab90919063ffffffff16565b6129b58184608001516128ab90919063ffffffff16565b505050565b6129c2612f07565b6000602083816129ce57fe5b06146129e757602082816129de57fe5b06602003820191505b81836020018181525050604051808452600081528281016020016040525082905092915050565b60178111612a3b57612a358160058460ff16901b60ff161784612b7590919063ffffffff16565b50612b4e565b60ff8111612a7d57612a60601860058460ff16901b1784612b7590919063ffffffff16565b50612a7781600185612b959092919063ffffffff16565b50612b4d565b61ffff8111612ac057612aa3601960058460ff16901b1784612b7590919063ffffffff16565b50612aba81600285612b959092919063ffffffff16565b50612b4c565b63ffffffff8111612b0557612ae8601a60058460ff16901b1784612b7590919063ffffffff16565b50612aff81600485612b959092919063ffffffff16565b50612b4b565b67ffffffffffffffff8111612b4a57612b31601b60058460ff16901b1784612b7590919063ffffffff16565b50612b4881600885612b959092919063ffffffff16565b505b5b5b5b5b505050565b612b5b612f07565b612b6d83846000015151848551612bb7565b905092915050565b612b7d612f07565b612b8d8384600001515184612c70565b905092915050565b612b9d612f07565b612bae848560000151518585612cbe565b90509392505050565b612bbf612f07565b8251821115612bcd57600080fd5b84602001518285011115612bf857612bf7856002612bf18860200151888701612d1f565b02612d3b565b5b600080865180518760208301019350808887011115612c175787860182525b60208701925050505b60208410612c435780518252602082019150602081019050602084039350612c20565b60006001856020036101000a03905080198251168184511681811785525050879350505050949350505050565b612c78612f07565b83602001518310612c9557612c94846002866020015102612d3b565b5b8351805160208583010184815381861415612cb1576001820183525b5050508390509392505050565b612cc6612f07565b84602001518483011115612ce457612ce385600286850102612d3b565b5b60006001836101000a0390508551838682010185831982511617815281518588011115612d115784870182525b505085915050949350505050565b600081831115612d3157829050612d35565b8190505b92915050565b606082600001519050612d4e83836129ba565b50612d598382612b53565b50505050565b6040518060a0016040528060008019168152602001600073ffffffffffffffffffffffffffffffffffffffff16815260200160007bffffffffffffffffffffffffffffffffffffffffffffffffffffffff1916815260200160008152602001612dc6612f07565b81525090565b6040518060600160405280612ddf612f21565b8152602001612dec612e3b565b8152602001612df9612dff565b81525090565b6040518060800160405280612e12612f34565b8152602001600081526020016000801916815260200160006002811115612e3557fe5b81525090565b6040518060c001604052806000815260200160008152602001600081526020016000815260200160008152602001600073ffffffffffffffffffffffffffffffffffffffff1681525090565b828054600181600116156101000203166002900490600052602060002090601f016020900481019282601f10612ec857805160ff1916838001178555612ef6565b82800160010185558215612ef6579182015b82811115612ef5578251825591602001919060010190612eda565b5b509050612f039190612f4e565b5090565b604051806040016040528060608152602001600081525090565b6040518060200160405280600081525090565b604051806040016040528060608152602001606081525090565b612f7091905b80821115612f6c576000816000905550600101612f54565b5090565b90565b600081359050612f8281613f13565b92915050565b600081359050612f9781613f2a565b92915050565b600081519050612fac81613f2a565b92915050565b600081359050612fc181613f41565b92915050565b600081359050612fd681613f58565b92915050565b600082601f830112612fed57600080fd5b8135613000612ffb82613cae565b613c81565b9150808252602083016020830185838301111561301c57600080fd5b613027838284613e78565b50505092915050565b60006040828403121561304257600080fd5b61304c6040613c81565b9050600082013567ffffffffffffffff81111561306857600080fd5b61307484828501612fdc565b600083015250602082013567ffffffffffffffff81111561309457600080fd5b6130a084828501612fdc565b60208301525092915050565b6000602082840312156130be57600080fd5b6130c86020613c81565b905060006130d8848285016130e4565b60008301525092915050565b6000813590506130f381613f6f565b92915050565b60006020828403121561310b57600080fd5b600061311984828501612f73565b91505092915050565b60008060006060848603121561313757600080fd5b600061314586828701612f73565b935050602061315686828701612fb2565b9250506040613167868287016130e4565b9150509250925092565b6000806040838503121561318457600080fd5b600061319285828601612f73565b92505060206131a3858286016130e4565b9150509250929050565b6000602082840312156131bf57600080fd5b60006131cd84828501612f88565b91505092915050565b6000602082840312156131e857600080fd5b60006131f684828501612f9d565b91505092915050565b60006020828403121561321157600080fd5b600061321f84828501612fb2565b91505092915050565b6000806040838503121561323b57600080fd5b600061324985828601612fb2565b925050602061325a85828601612fc7565b9150509250929050565b60006020828403121561327657600080fd5b6000613284848285016130ac565b91505092915050565b600080600080608085870312156132a357600080fd5b60006132b1878288016130ac565b945050602085013567ffffffffffffffff8111156132ce57600080fd5b6132da87828801613030565b93505060406132eb878288016130e4565b92505060606132fc878288016130e4565b91505092959194509250565b60006020828403121561331a57600080fd5b6000613328848285016130e4565b91505092915050565b6000806040838503121561334457600080fd5b6000613352858286016130e4565b925050602061336385828601612fc7565b9150509250929050565b600061337983836138b7565b905092915050565b600061338d83836139ce565b60208301905092915050565b6133a281613da7565b82525050565b6133b181613d95565b82525050565b60006133c282613cfa565b6133cc8185613d40565b9350836020820285016133de85613cda565b8060005b8581101561341a57848403895281516133fb858261336d565b945061340683613d26565b925060208a019950506001810190506133e2565b50829750879550505050505092915050565b600061343782613d05565b6134418185613d51565b935061344c83613cea565b8060005b8381101561347d5781516134648882613381565b975061346f83613d33565b925050600181019050613450565b5085935050505092915050565b61349381613db9565b82525050565b6134a281613dc5565b82525050565b6134b181613dc5565b82525050565b6134c081613dcf565b82525050565b60006134d182613d10565b6134db8185613d62565b93506134eb818560208601613e87565b6134f481613ee8565b840191505092915050565b61351061350b82613e42565b613eba565b82525050565b61351f81613e66565b82525050565b61352e81613e0e565b82525050565b600061353f82613d1b565b6135498185613d73565b9350613559818560208601613e87565b61356281613ee8565b840191505092915050565b600061357a602683613d84565b91507f4f776e61626c653a206e6577206f776e657220697320746865207a65726f206160008301527f64647265737300000000000000000000000000000000000000000000000000006020830152604082019050919050565b60006135e0602383613d84565b91507f756e61626c6520746f207472616e73666572416e6443616c6c20746f206f726160008301527f636c6500000000000000000000000000000000000000000000000000000000006020830152604082019050919050565b6000613646602083613d84565b91507f4f776e61626c653a2063616c6c6572206973206e6f7420746865206f776e65726000830152602082019050919050565b6000613686602883613d84565b91507f536f75726365206d75737420626520746865206f7261636c65206f662074686560008301527f20726571756573740000000000000000000000000000000000000000000000006020830152604082019050919050565b60006136ec602283613d84565b91507f596f75206e65656420746f207061792074686520706f6c696379207072656d6960008301527f756d0000000000000000000000000000000000000000000000000000000000006020830152604082019050919050565b600060408301600083015184820360008601526137628282613534565b9150506020830151848203602086015261377c8282613534565b9150508091505092915050565b60c08201600082015161379f60008501826139ce565b5060208201516137b260208501826139ce565b5060408201516137c560408501826139ce565b5060608201516137d86060850182613525565b5060808201516137eb6080850182613525565b5060a08201516137fe60a0850182613399565b50505050565b60c08201600082015161381a60008501826139ce565b50602082015161382d60208501826139ce565b50604082015161384060408501826139ce565b5060608201516138536060850182613525565b5060808201516138666080850182613525565b5060a082015161387960a0850182613399565b50505050565b60208201600082015161389560008501826139ce565b50505050565b6020820160008201516138b160008501826139ce565b50505050565b6000610100830160008301516138d0600086018261387f565b5060208301516138e36020860182613789565b50604083015184820360e08601526138fb8282613908565b9150508091505092915050565b600060808301600083015184820360008601526139258282613745565b915050602083015161393a6020860182613525565b50604083015161394d6040860182613499565b5060608301516139606060860182613516565b508091505092915050565b600060808301600083015184820360008601526139888282613745565b915050602083015161399d6020860182613525565b5060408301516139b06040860182613499565b5060608301516139c36060860182613516565b508091505092915050565b6139d781613e38565b82525050565b6139e681613e38565b82525050565b6139fd6139f882613e38565b613ede565b82525050565b6000613a0f82856134ff565b601482019150613a1f82846139ec565b6020820191508190509392505050565b6000602082019050613a4460008301846133a8565b92915050565b600061010082019050613a60600083018b6133a8565b613a6d602083018a6139dd565b613a7a60408301896134a8565b613a8760608301886133a8565b613a9460808301876134b7565b613aa160a08301866139dd565b613aae60c08301856139dd565b81810360e0830152613ac081846134c6565b90509998505050505050505050565b6000606082019050613ae460008301866133a8565b613af160208301856139dd565b8181036040830152613b0381846134c6565b9050949350505050565b60006020820190508181036000830152613b2781846133b7565b905092915050565b60006020820190508181036000830152613b49818461342c565b905092915050565b6000602082019050613b66600083018461348a565b92915050565b6000602082019050613b8160008301846134a8565b92915050565b60006020820190508181036000830152613ba08161356d565b9050919050565b60006020820190508181036000830152613bc0816135d3565b9050919050565b60006020820190508181036000830152613be081613639565b9050919050565b60006020820190508181036000830152613c0081613679565b9050919050565b60006020820190508181036000830152613c20816136df565b9050919050565b600061010082019050613c3d600083018661389b565b613c4a6020830185613804565b81810360e0830152613c5c818461396b565b9050949350505050565b6000602082019050613c7b60008301846139dd565b92915050565b6000604051905081810181811067ffffffffffffffff82111715613ca457600080fd5b8060405250919050565b600067ffffffffffffffff821115613cc557600080fd5b601f19601f8301169050602081019050919050565b6000819050602082019050919050565b6000819050602082019050919050565b600081519050919050565b600081519050919050565b600081519050919050565b600081519050919050565b6000602082019050919050565b6000602082019050919050565b600082825260208201905092915050565b600082825260208201905092915050565b600082825260208201905092915050565b600082825260208201905092915050565b600082825260208201905092915050565b6000613da082613e18565b9050919050565b6000613db282613e18565b9050919050565b60008115159050919050565b6000819050919050565b60007fffffffff0000000000000000000000000000000000000000000000000000000082169050919050565b6000819050613e0982613f06565b919050565b6000819050919050565b600073ffffffffffffffffffffffffffffffffffffffff82169050919050565b6000819050919050565b6000613e4d82613e54565b9050919050565b6000613e5f82613e18565b9050919050565b6000613e7182613dfb565b9050919050565b82818337600083830152505050565b60005b83811015613ea5578082015181840152602081019050613e8a565b83811115613eb4576000848401525b50505050565b6000613ec582613ecc565b9050919050565b6000613ed782613ef9565b9050919050565b6000819050919050565b6000601f19601f8301169050919050565b60008160601b9050919050565b60038110613f1057fe5b50565b613f1c81613d95565b8114613f2757600080fd5b50565b613f3381613db9565b8114613f3e57600080fd5b50565b613f4a81613dc5565b8114613f5557600080fd5b50565b613f6181613e0e565b8114613f6c57600080fd5b50565b613f7881613e38565b8114613f8357600080fd5b5056fea2646970667358221220487834044ff741b31c6c1f178db8b46b6310b9a09618c0e7054d53c3cfe7caf964736f6c63430006060033",
  "immutableReferences": {},
  "source": "pragma solidity ^0.6.0;\npragma experimental ABIEncoderV2;\n\nimport \"@chainlink/contracts/src/v0.6/ChainlinkClient.sol\";\nimport \"@chainlink/contracts/src/v0.6/vendor/Ownable.sol\";\n\ncontract MarineInsurance is ChainlinkClient, Ownable{\n\n    enum RequestStatus {\n        CREATED, // @dev The user created the policy and the water level hasn't been measured.\n        INITIATED, // @dev The smart contract has requested the water level for the policy. Water levels are measured every 24 hours.\n        COMPLETED //@dev The smart contract has received the water level value.\n    }\n\n    struct Coordinate {\n        string lat;\n        string lng;\n    }\n\n    struct DwellingData{\n        uint256 dwellingValue;\n    }\n\n    struct CoverageData {\n        uint256 dailyClaimAmount;\n        uint256 startDate;\n        uint256 endDate;\n        int256 waterLevelMin;\n        int256 waterLevelMax;\n        address payable beneficiary;\n    }\n\n    struct TrackingData {\n        Coordinate location;\n        int256 currentWaterLevel;\n        bytes32 currentRequestId;\n        RequestStatus requestStatus;\n    }\n\n    struct InsurancePolicy{\n        DwellingData dwellingData;\n        CoverageData coverageData;\n        TrackingData trackingData;\n    }\n\n    event InsurancePolicyCreation (\n        address indexed beneficiary,\n        uint256 indexed insuranceIdentifier\n    );\n\n    event ClaimPayout (\n        address indexed beneficiary,\n        uint256 indexed insuranceIdentifier,\n        uint256 amountPaid\n    );\n\n    event InsurancePolicyExpired (\n        address indexed beneficiary,\n        uint256 indexed insuranceIdentifier,\n        uint256 dateExpired\n    );\n\n    InsurancePolicy[] public insurancePolicies;\n    mapping(address => uint[]) public insurancePolicyOwnership;\n    mapping(bytes32 => uint) requestToInsurancePolicyId;\n\n    //Water level oracle data\n    address public waterLevelOracle;\n    bytes32 public waterLevelJobId;\n    uint256 public waterLevelFee;\n\n    //Water level evaluation period oracle data\n    address public waterLevelEvaluationPeriodOracle;\n    bytes32 public waterLevelEvaluationPeriodJobId;\n    uint256 public waterLevelEvaluationPeriodFee;\n    uint256 public waterLevelEvaluationPeriod;\n    bool public waterLevelEvaluationPeriodActive;\n\n    constructor(address _linkTokenAddress) public {\n        waterLevelEvaluationPeriod = 86400; // seconds in a day\n        if (_linkTokenAddress == address(0)) {\n            setPublicChainlinkToken();\n        } else {\n            setChainlinkToken(_linkTokenAddress);\n        }\n    }\n\n    /*----------  PUBLIC FUNCTIONS  ----------*/\n    //Calculate premium\n    function calculatePremium(DwellingData memory _dwellingData) public view returns (uint256){\n        \n\n        return 945600000000;\n    }\n\n    function calculateDailyClaimPayouts(DwellingData memory _dwellingData) public pure returns(uint256) {\n        //TODO: \n        return 1000;\n    }\n\n    //Create an insurance policy record\n    function registerInsurancePolicy(DwellingData memory _dwellingData,\n        Coordinate memory _location,\n        uint256 _startDate,\n        uint256 _endDate)\n    public payable returns(uint256) {\n        uint256 premium = calculatePremium(_dwellingData);\n        require(premium == msg.value, \"You need to pay the policy premium\");\n        uint256 claimPaymentAmount = calculateDailyClaimPayouts(_dwellingData);\n\n        TrackingData memory initialTrackingData = TrackingData({\n            location: _location,\n            currentWaterLevel: -9999,\n            currentRequestId: \"0x0\",\n            requestStatus : RequestStatus.CREATED\n        });\n\n        CoverageData memory coverageData = CoverageData({\n            startDate: _startDate,\n            endDate: _endDate,\n            dailyClaimAmount: claimPaymentAmount,\n            waterLevelMin: -50,\n            waterLevelMax: 50,\n            beneficiary: msg.sender\n        });\n\n        InsurancePolicy memory policy = InsurancePolicy({\n            coverageData: coverageData,\n            dwellingData: _dwellingData,\n            trackingData: initialTrackingData\n        });\n\n        insurancePolicies.push(policy);\n        uint256 identifier = insurancePolicies.length - 1;\n        insurancePolicyOwnership[msg.sender].push(identifier);\n        emit InsurancePolicyCreation(msg.sender, identifier);\n        return identifier;\n    }\n\n    function getInsurancePolicies() public view returns (InsurancePolicy[] memory){\n        return getInsurancePolicies(msg.sender);\n    }\n\n    function getInsurancePolicyIds() public view returns (uint[] memory) {\n        return insurancePolicyOwnership[msg.sender];\n    }\n\n    function getInsurancePolicies(address beneficiary) public view returns (InsurancePolicy[] memory){\n        uint[] storage insurancePolicyIds = insurancePolicyOwnership[beneficiary];\n        InsurancePolicy[] memory result = new InsurancePolicy[](insurancePolicyIds.length);\n        for(uint i = 0; i < insurancePolicyIds.length; i++) {\n            result[i] = insurancePolicies[insurancePolicyIds[i]];\n        }\n        return result;\n    }\n\n    function isPolicyActive(uint256 _identifier) public view returns(bool){\n        InsurancePolicy storage policy = insurancePolicies[_identifier];\n        return now >= policy.coverageData.startDate && now <= policy.coverageData.endDate;\n    }\n\n    function getChainlinkToken() public view returns (address) {\n        return chainlinkTokenAddress();\n    }\n\n    /*----------  ORACLE ONLY FUNCTIONS  ----------*/\n\n    function receiveWaterLevel(bytes32 _requestId, int256 _level) public recordChainlinkFulfillment(_requestId){\n        InsurancePolicy storage insurancePolicy = insurancePolicies[requestToInsurancePolicyId[_requestId]];\n        insurancePolicy.trackingData.currentWaterLevel = _level;\n        insurancePolicy.trackingData.requestStatus = RequestStatus.COMPLETED;\n        delete requestToInsurancePolicyId[_requestId];\n        if (_level > insurancePolicy.coverageData.waterLevelMin &&\n            _level < insurancePolicy.coverageData.waterLevelMax) {\n            return;\n        }\n        //Create and pay claim\n        else {\n            uint amountToPayToday = insurancePolicy.coverageData.dailyClaimAmount;\n            insurancePolicy.coverageData.beneficiary.transfer(amountToPayToday);\n            emit ClaimPayout(insurancePolicy.coverageData.beneficiary,\n                requestToInsurancePolicyId[_requestId],\n                amountToPayToday);\n        }\n        if(!isPolicyActive(insurancePolicy)) {\n            emit InsurancePolicyExpired(insurancePolicy.coverageData.beneficiary,\n                requestToInsurancePolicyId[_requestId], now);\n        }\n        if(waterLevelEvaluationPeriodActive) {\n            startWaterLevelEvaluationRequestPeriod();\n        }\n    }\n\n    function automatedWaterEvaluationLevelReceiver(bytes32 _requestId) public recordChainlinkFulfillment(_requestId) {\n        requestWaterLevels();\n    }\n\n    /*----------  ADMINISTRATOR ONLY FUNCTIONS  ----------*/\n\n    function setWaterLevelOracleData(address _oracleAddress, bytes32 _jobId, uint256 _fee) public onlyOwner {\n        waterLevelOracle = _oracleAddress;\n        waterLevelJobId = _jobId;\n        waterLevelFee = _fee;\n    }\n\n    function setWaterLevelEvaluationPeriodOracle(address _oracleAddress, bytes32 _jobId, uint256 _fee) public onlyOwner {\n        waterLevelEvaluationPeriodOracle = _oracleAddress;\n        waterLevelEvaluationPeriodJobId = _jobId;\n        waterLevelEvaluationPeriodFee = _fee;\n    }\n\n    function setWaterLevelEvaluationRequestPeriod(uint256 _seconds) public onlyOwner {\n        waterLevelEvaluationPeriod = _seconds;\n    }\n\n    function setWaterLevelEvaluationPeriodActive(bool _isActive) public onlyOwner {\n        waterLevelEvaluationPeriodActive = _isActive;\n    }\n\n    function requestWaterLevelsManually() public onlyOwner {\n        requestWaterLevels();\n    }\n\n    function startWaterLevelEvaluationRequestPeriod() public onlyOwner {\n        waterLevelEvaluationPeriodActive = true;\n        Chainlink.Request memory req = buildChainlinkRequest(waterLevelEvaluationPeriodJobId, address(this),\n            this.automatedWaterEvaluationLevelReceiver.selector);\n        req.addUint(\"until\", now + waterLevelEvaluationPeriod);\n        sendChainlinkRequestTo(waterLevelEvaluationPeriodOracle, req, waterLevelEvaluationPeriodFee);\n    }\n\n    //@dev for demo\n    function changeWaterLevelManually(uint256 insurancePolicyIdentifier, int256 _level) public onlyOwner {\n        InsurancePolicy storage insurancePolicy = insurancePolicies[insurancePolicyIdentifier];\n        insurancePolicy.trackingData.currentWaterLevel = _level;\n        insurancePolicy.trackingData.requestStatus = RequestStatus.COMPLETED;\n        if (_level > insurancePolicy.coverageData.waterLevelMin &&\n            _level < insurancePolicy.coverageData.waterLevelMax) {\n            return;\n        }\n        //Create and pay claim\n        else {\n            uint amountToPayToday = insurancePolicy.coverageData.dailyClaimAmount;\n            insurancePolicy.coverageData.beneficiary.transfer(amountToPayToday);\n            emit ClaimPayout(insurancePolicy.coverageData.beneficiary,\n                insurancePolicyIdentifier,\n                amountToPayToday);\n        }\n    }\n\n    /*----------  PRIVATE FUNCTIONS  ----------*/\n\n    function requestWaterLevels() private {\n        for(uint i = 0; i < insurancePolicies.length; i++) {\n            InsurancePolicy storage insurancePolicy = insurancePolicies[i];\n            if(isPolicyActive(insurancePolicy)){\n                insurancePolicy.trackingData.requestStatus = RequestStatus.INITIATED;\n                Chainlink.Request memory request = buildChainlinkRequest(waterLevelJobId, address(this), this.receiveWaterLevel.selector);\n                request.add(\"lat\", insurancePolicy.trackingData.location.lat);\n                request.add(\"lng\", insurancePolicy.trackingData.location.lng);\n                bytes32 requestId = sendChainlinkRequestTo(waterLevelOracle, request, waterLevelFee);\n                requestToInsurancePolicyId[requestId] = i;\n            }\n        }\n    }\n\n    function isPolicyActive(InsurancePolicy memory _policy) private view returns(bool){\n        return now >= _policy.coverageData.startDate\n        && now <= _policy.coverageData.endDate;\n    }\n\n    /*----------  FALLBACK FUNCTION  ----------*/\n    //@notice this will enable anyone to send eth to the smart contract\n    fallback() external payable {\n    }\n}",
  "sourcePath": "/Users/blentz/Downloads/Parametric Flood Insurance/insurance-product/contracts/MarineInsurance.sol",
  "compiler": {
    "name": "solc",
    "version": "0.6.6+commit.6c089d02.Emscripten.clang"
  },
  "schemaVersion": "3.4.1",
  "updatedAt": "2022-03-04T13:47:05.329Z",
  "networkType": "ethereum",
  "devdoc": {
    "methods": {
      "isOwner()": {
        "details": "Returns true if the caller is the current owner."
      },
      "owner()": {
        "details": "Returns the address of the current owner."
      },
      "transferOwnership(address)": {
        "details": "Transfers ownership of the contract to a new account (`newOwner`). Can only be called by the current owner."
      }
    }
  },
  "userdoc": {
    "methods": {}
  }
}